:10000000004000207B0600001107000019070000D7
:1000100000000000000000000000000000000000E0
:1000200000000000000000000000000011070000B8
:100030000000000000000000110700001107000090
:100040001107000011070000110700006102000005
:100050001107000011070000110700001107000040
:100060001107000011070000110700001107000030
:100070001107000011070000110700001107000020
:100080001107000011070000110700001107000010
:100090001107000011070000110700001107000000
:1000A00011070000110700001107000011070000F0
:1000B0000000000000000000000000000000000040
:1000C00080B500AF002000F091F900F051FA314BFB
:1000D00004221A60304BC02252001A602F4B80223B
:1000E00012011A602E4B0A221A602E4BC3221201F3
:1000F0001A602D4B1A682C4B8021C9030A431A60E1
:100100002A4B1A68294B80210A431A60284B1A6827
:10011000274B802109020A431A60264B1A68254B97
:10012000C02109060A431A60234B012252421A6079
:10013000224B1A68214B08210A431A6000F071F81B
:100140001F4B1A681E4B08218A431A601D4B002260
:100150001A601D4B31221A601C4B1D4A1A601D4B40
:100160001D4A1A601D4B1A681C4B1D490A431A6030
:10017000134B1A68124B08210A431A60194B1A686C
:10018000184B802109010A431A6000F0F1F9C046BA
:10019000FDE7C046000104400801044000010240A0
:1001A000000504400805044008030440000304401F
:1001B0000C03044000E400E080E200E000E100E025
:1001C00000002040C8012040E8012040D401204028
:1001D0000F270000CC012040A7610000C001204093
:1001E000080000040800204080B584B000AF7860AB
:1001F0000023FB6002E0FB680133FB60FB687A6868
:100200009A42F8D80023BB6002E0BB680133BB60B0
:10021000BB687A689A42F8D8C046C046BD4604B06A
:1002200080BD80B500AF0A4B8022D2051A60094B11
:10023000EF2212021A60064B1A68054B06490A4360
:100240001A60064B40221A60C046BD4680BDC046BB
:10025000000001400003014040FF008024010140F4
:1002600080B582B000AF194B80221A60184B1B6812
:100270007B607B68DB090122134022D1154B0022F1
:100280001A60154B1800FFF7AFFF144B1B78002BBB
:1002900006D1134B02221A60104B01221A7009E09A
:1002A0000E4B1B78012B05D10D4B08221A600B4B0E
:1002B00000221A70084B1800FFF796FF054B094AF9
:1002C0001A60C046BD4602B080BDC046100304405F
:1002D00004030440CC01204040420F0000000020F5
:1002E000000504408813000080B582B000AF020012
:1002F0003960FB1D1A70FB1D1B789B01FF221A4001
:100300003B683F210B401A43044B8021C9050A4337
:100310001A60C046BD4602B080BDC0460000014024
:1003200080B584B000AFB9607A600F217B18021CE1
:100330001A707B187A1812781A700A4ABB68C03390
:100340009B009B58084A1A407B681B0207490B40D8
:1003500004491A43BB68C0339B005A50C046BD468F
:1003600004B080BD00000140FF0000FF00FFFF005F
:1003700080B582B000AF02003960FB1D1A70FB1D12
:100380001B789B01FF221A403B683F210B401A4318
:10039000044B05490A431A60024B1B68C046BD4620
:1003A00002B080BD0000014000FF008080B582B037
:1003B00000AF3A60FB1D021C1A70BB1D0A1C1A70AC
:1003C000BB1D1B789B01FF22134019003B683F2295
:1003D0001A400548FB1D1B780A4340339B001A5006
:1003E000C046BD4602B080BD0000014080B582B06D
:1003F00000AF0200FB1D1A70084B9B6A0C2293434E
:100400001900FB1D1B789B000C221A40034B0A436A
:100410009A62C046BD4602B080BDC046000003409F
:1004200080B500AF034B802212061A63C046BD465A
:1004300080BDC0460000034080B500AF0A4A0B4BA8
:10044000D3589B001C22134019000A005201521A73
:1004500093019B1ADB005B189B01054A9446634499
:100460001800BD4680BDC04600000340080F0000D4
:1004700000366E0180B586B000AF7860FFF7DCFF14
:1004800002007B6893425FD07B68314A94466344A4
:100490003049180000F044F90300FB602E4A2F4B4E
:1004A0000021D1502E49E623FF33FA688A18D31869
:1004B0001B78DBB2284A19002A4BD150264AF12377
:1004C0001B010021D1502649E6235B00FA688A18F7
:1004D000D3181B78DBB2204A1900234BD150FB689C
:1004E0009B08FB6000237B6102E07B6901337B6139
:1004F0007B691E4A9342F8DDFB68002B24D0164A24
:10050000164BD358072293431A00FB68013B07217F
:100510000B4011491343114A8B5000233B6102E009
:100520003B6901333B613B69104A9342F8DD0A4A5B
:100530000A4BD358072293431A00FB6807210B404C
:1005400005491343054A8B50C046BD4606B080BDE1
:1005500000CA91FE40420F0000000340080F000057
:1005600000F0FF0F0C0F0000180F00004FC3000039
:1005700080B500AF62B6C046BD4680BD80B500AF55
:1005800072B6C046BD4680BD80B582B000AF78600F
:1005900039607B68002B1FDB114A7B689B08C033E6
:1005A0009B009B587A6803210A40D200FF219140AA
:1005B0000A00D2431A4011003B689B01FF221A40F7
:1005C0007B6803200340DB009A4005487B689B085A
:1005D0000A43C0339B001A50C046BD4602B080BDDE
:1005E00000E100E080B582B000AF78607B68002B4E
:1005F00008DB7B681F221340044901229A40C02374
:100600005B00CA50C046BD4602B080BD00E100E0BC
:1006100080B582B000AF78607B68002B07DB7B6819
:100620001F221A40044B012191400A001A60C04663
:10063000BD4602B080BDC04600E100E080B582B09A
:1006400000AF78607B68002B0CDB7B681F221340B7
:10065000064901229A40130080228B50BFF34F8F2E
:10066000BFF36F8FC046BD4602B080BD00E100E021
:1006700080B500AFC046BD4680BD80B586B000AF36
:100680001C4B1D4A1A601D4A1D4BD31A9B107B60E0
:100690001B4B7B611B4B3B610023FB600AE03A690B
:1006A000131D3B617B69191D796112681A60FB6833
:1006B0000133FB60FA687B689A42F0D3124A134B0D
:1006C000D31A9B107B60114B7B610023BB6007E05A
:1006D0007B691A1D7A6100221A60BB680133BB6016
:1006E000BA687B689A42F3D300F0A6F8FFF7E8FCFB
:1006F000C046FDE7380003406588EDAC00000020EF
:1007000000000020800800000400002000000020FD
:1007100080B500AFC046FDE780B500AFC046FDE73D
:10072000002243088B4274D303098B425FD3030A30
:100730008B4244D3030B8B4228D3030C8B420DD343
:10074000FF22090212BA030C8B4202D312120902D1
:1007500065D0030B8B4219D300E0090AC30B8B420F
:1007600001D3CB03C01A5241830B8B4201D38B03BD
:10077000C01A5241430B8B4201D34B03C01A524162
:10078000030B8B4201D30B03C01A5241C30A8B42A5
:1007900001D3CB02C01A5241830A8B4201D38B0290
:1007A000C01A5241430A8B4201D34B02C01A524134
:1007B000030A8B4201D30B02C01A5241CDD2C309A6
:1007C0008B4201D3CB01C01A524183098B4201D322
:1007D0008B01C01A524143098B4201D34B01C01A0D
:1007E000524103098B4201D30B01C01A5241C30885
:1007F0008B4201D3CB00C01A524183088B4201D3F4
:100800008B00C01A524143088B4201D34B00C01ADF
:100810005241411A00D20146524110467047FFE74B
:1008200001B5002000F006F802BDC0460029F7D04F
:1008300076E770477047C04670B500260C4C0D4DEA
:10084000641BA410A64209D10026FFF711FF0A4C31
:100850000A4D641BA410A64205D170BDB300EB582D
:1008600098470136EEE7B300EB5898470136F2E7B8
:100870000000000000000000000000000000000078
:040000030000067B78
:00000001FF
